{
  "contractName": "BloCoin",
  "abi": [
    {
      "inputs": [],
      "stateMutability": "nonpayable",
      "type": "constructor"
    },
    {
      "anonymous": false,
      "inputs": [
        {
          "indexed": false,
          "internalType": "address",
          "name": "_owner",
          "type": "address"
        },
        {
          "indexed": false,
          "internalType": "uint256",
          "name": "_tokenID",
          "type": "uint256"
        }
      ],
      "name": "Add",
      "type": "event"
    },
    {
      "anonymous": false,
      "inputs": [
        {
          "indexed": true,
          "internalType": "address",
          "name": "_from",
          "type": "address"
        },
        {
          "indexed": true,
          "internalType": "address",
          "name": "_to",
          "type": "address"
        },
        {
          "indexed": false,
          "internalType": "uint256",
          "name": "_cost",
          "type": "uint256"
        }
      ],
      "name": "BuyToken",
      "type": "event"
    },
    {
      "anonymous": false,
      "inputs": [
        {
          "indexed": true,
          "internalType": "address",
          "name": "_from",
          "type": "address"
        },
        {
          "indexed": true,
          "internalType": "address",
          "name": "_to",
          "type": "address"
        },
        {
          "indexed": false,
          "internalType": "uint256",
          "name": "_tokenID",
          "type": "uint256"
        }
      ],
      "name": "TransferToken",
      "type": "event"
    },
    {
      "anonymous": false,
      "inputs": [
        {
          "indexed": false,
          "internalType": "string",
          "name": "_msg",
          "type": "string"
        },
        {
          "indexed": false,
          "internalType": "uint256",
          "name": "_cost",
          "type": "uint256"
        }
      ],
      "name": "UpdateStatus",
      "type": "event"
    },
    {
      "inputs": [
        {
          "internalType": "uint256",
          "name": "",
          "type": "uint256"
        }
      ],
      "name": "__forSaleTokens",
      "outputs": [
        {
          "internalType": "address",
          "name": "ownerAddress",
          "type": "address"
        },
        {
          "internalType": "string",
          "name": "location",
          "type": "string"
        },
        {
          "internalType": "uint256",
          "name": "cost",
          "type": "uint256"
        },
        {
          "internalType": "uint256",
          "name": "tokenID",
          "type": "uint256"
        },
        {
          "internalType": "uint256",
          "name": "wantSell",
          "type": "uint256"
        }
      ],
      "stateMutability": "view",
      "type": "function"
    },
    {
      "inputs": [
        {
          "internalType": "address",
          "name": "",
          "type": "address"
        },
        {
          "internalType": "uint256",
          "name": "",
          "type": "uint256"
        }
      ],
      "name": "__ownedTokens",
      "outputs": [
        {
          "internalType": "address",
          "name": "ownerAddress",
          "type": "address"
        },
        {
          "internalType": "string",
          "name": "location",
          "type": "string"
        },
        {
          "internalType": "uint256",
          "name": "cost",
          "type": "uint256"
        },
        {
          "internalType": "uint256",
          "name": "tokenID",
          "type": "uint256"
        },
        {
          "internalType": "uint256",
          "name": "wantSell",
          "type": "uint256"
        }
      ],
      "stateMutability": "view",
      "type": "function"
    },
    {
      "inputs": [],
      "name": "owner",
      "outputs": [
        {
          "internalType": "address",
          "name": "",
          "type": "address"
        }
      ],
      "stateMutability": "view",
      "type": "function"
    },
    {
      "inputs": [],
      "name": "totalTokensCounter",
      "outputs": [
        {
          "internalType": "uint256",
          "name": "",
          "type": "uint256"
        }
      ],
      "stateMutability": "view",
      "type": "function"
    },
    {
      "stateMutability": "payable",
      "type": "receive"
    },
    {
      "inputs": [
        {
          "internalType": "address",
          "name": "tokenOwner",
          "type": "address"
        },
        {
          "internalType": "string",
          "name": "_location",
          "type": "string"
        },
        {
          "internalType": "uint256",
          "name": "_cost",
          "type": "uint256"
        }
      ],
      "name": "addToken",
      "outputs": [],
      "stateMutability": "nonpayable",
      "type": "function"
    },
    {
      "inputs": [
        {
          "internalType": "address",
          "name": "rec",
          "type": "address"
        }
      ],
      "name": "transferEther",
      "outputs": [],
      "stateMutability": "payable",
      "type": "function"
    },
    {
      "inputs": [
        {
          "internalType": "uint256",
          "name": "_tokenID",
          "type": "uint256"
        }
      ],
      "name": "deleteForSaleToken",
      "outputs": [],
      "stateMutability": "nonpayable",
      "type": "function"
    },
    {
      "inputs": [],
      "name": "getAllTokens",
      "outputs": [
        {
          "components": [
            {
              "internalType": "address",
              "name": "ownerAddress",
              "type": "address"
            },
            {
              "internalType": "string",
              "name": "location",
              "type": "string"
            },
            {
              "internalType": "uint256",
              "name": "cost",
              "type": "uint256"
            },
            {
              "internalType": "uint256",
              "name": "tokenID",
              "type": "uint256"
            },
            {
              "internalType": "uint256",
              "name": "wantSell",
              "type": "uint256"
            }
          ],
          "internalType": "struct BloCoin.Token[]",
          "name": "",
          "type": "tuple[]"
        }
      ],
      "stateMutability": "payable",
      "type": "function"
    },
    {
      "inputs": [
        {
          "internalType": "address",
          "name": "_tokenBuyer",
          "type": "address"
        },
        {
          "internalType": "uint256",
          "name": "_tokenID",
          "type": "uint256"
        }
      ],
      "name": "transferToken",
      "outputs": [
        {
          "internalType": "bool",
          "name": "",
          "type": "bool"
        }
      ],
      "stateMutability": "payable",
      "type": "function"
    },
    {
      "inputs": [
        {
          "internalType": "address",
          "name": "_tokenHolder",
          "type": "address"
        },
        {
          "internalType": "uint256",
          "name": "_index",
          "type": "uint256"
        }
      ],
      "name": "getToken",
      "outputs": [
        {
          "internalType": "string",
          "name": "",
          "type": "string"
        },
        {
          "internalType": "uint256",
          "name": "",
          "type": "uint256"
        },
        {
          "internalType": "address",
          "name": "",
          "type": "address"
        },
        {
          "internalType": "uint256",
          "name": "",
          "type": "uint256"
        },
        {
          "internalType": "uint256",
          "name": "",
          "type": "uint256"
        }
      ],
      "stateMutability": "view",
      "type": "function"
    },
    {
      "inputs": [],
      "name": "withdraw",
      "outputs": [],
      "stateMutability": "nonpayable",
      "type": "function"
    },
    {
      "inputs": [
        {
          "internalType": "address",
          "name": "_tokenHolder",
          "type": "address"
        },
        {
          "internalType": "uint256",
          "name": "token_id",
          "type": "uint256"
        }
      ],
      "name": "RemoveFromSale",
      "outputs": [
        {
          "internalType": "string",
          "name": "",
          "type": "string"
        }
      ],
      "stateMutability": "nonpayable",
      "type": "function"
    },
    {
      "inputs": [
        {
          "internalType": "address",
          "name": "_tokenHolder",
          "type": "address"
        },
        {
          "internalType": "uint256",
          "name": "token_id",
          "type": "uint256"
        }
      ],
      "name": "AddForSale",
      "outputs": [
        {
          "internalType": "string",
          "name": "",
          "type": "string"
        }
      ],
      "stateMutability": "nonpayable",
      "type": "function"
    },
    {
      "inputs": [
        {
          "internalType": "address",
          "name": "_tokenHolder",
          "type": "address"
        }
      ],
      "name": "getNoOfTokens",
      "outputs": [
        {
          "internalType": "uint256",
          "name": "",
          "type": "uint256"
        }
      ],
      "stateMutability": "view",
      "type": "function"
    }
  ],
  "bytecode": "0x608060405260008060146101000a81548160ff021916908315150217905550600060015534801561002f57600080fd5b50734f332d20a4b738cbe44edbfeb481e57865caae606000806101000a81548173ffffffffffffffffffffffffffffffffffffffff021916908373ffffffffffffffffffffffffffffffffffffffff16021790555060006001819055506126868061009b6000396000f3fe6080604052600436106100e15760003560e01c80636b55e9911161007f5780639ff9fe0f116100595780639ff9fe0f146102be578063a7ad98b6146102e9578063bfbf7e761461032a578063ea55020a14610367576100e8565b80636b55e9911461023657806385d026cb146102525780638da5cb5b14610293576100e8565b80632a5c792a116100bb5780632a5c792a146101975780633ccfd60b146101b557806343d7cce6146101cc57806348b5de7a1461020d576100e8565b8063045148a1146100ed5780631072cbea1461012a578063205c6a711461015a576100e8565b366100e857005b600080fd5b3480156100f957600080fd5b50610114600480360381019061010f9190611eef565b610390565b60405161012191906121eb565b60405180910390f35b610144600480360381019061013f9190611eef565b6107d2565b60405161015191906121d0565b60405180910390f35b34801561016657600080fd5b50610181600480360381019061017c9190611e5f565b610d68565b60405161018e9190612267565b60405180910390f35b61019f610db4565b6040516101ac91906121ae565b60405180910390f35b3480156101c157600080fd5b506101ca610f19565b005b3480156101d857600080fd5b506101f360048036038101906101ee9190611eef565b610f82565b60405161020495949392919061220d565b60405180910390f35b34801561021957600080fd5b50610234600480360381019061022f9190611f2b565b6112f6565b005b610250600480360381019061024b9190611e5f565b61140b565b005b34801561025e57600080fd5b5061027960048036038101906102749190611eef565b61153e565b60405161028a95949392919061212b565b60405180910390f35b34801561029f57600080fd5b506102a8611639565b6040516102b59190612110565b60405180910390f35b3480156102ca57600080fd5b506102d361165d565b6040516102e09190612267565b60405180910390f35b3480156102f557600080fd5b50610310600480360381019061030b9190611f2b565b611663565b60405161032195949392919061212b565b60405180910390f35b34801561033657600080fd5b50610351600480360381019061034c9190611eef565b611751565b60405161035e91906121eb565b60405180910390f35b34801561037357600080fd5b5061038e60048036038101906103899190611e88565b611a27565b005b606060005b600360008573ffffffffffffffffffffffffffffffffffffffff1673ffffffffffffffffffffffffffffffffffffffff168152602001908152602001600020805490508110156107925782600360008673ffffffffffffffffffffffffffffffffffffffff1673ffffffffffffffffffffffffffffffffffffffff1681526020019081526020016000208281548110610457577f4e487b7100000000000000000000000000000000000000000000000000000000600052603260045260246000fd5b906000526020600020906005020160030154141561077f576000600360008673ffffffffffffffffffffffffffffffffffffffff1673ffffffffffffffffffffffffffffffffffffffff16815260200190815260200160002082815481106104e8577f4e487b7100000000000000000000000000000000000000000000000000000000600052603260045260246000fd5b9060005260206000209060050201600401541415610741576001600360008673ffffffffffffffffffffffffffffffffffffffff1673ffffffffffffffffffffffffffffffffffffffff1681526020019081526020016000208281548110610579577f4e487b7100000000000000000000000000000000000000000000000000000000600052603260045260246000fd5b906000526020600020906005020160040181905550600360008573ffffffffffffffffffffffffffffffffffffffff1673ffffffffffffffffffffffffffffffffffffffff1681526020019081526020016000208181548110610605577f4e487b7100000000000000000000000000000000000000000000000000000000600052603260045260246000fd5b90600052602060002090600502016004828154811061064d577f4e487b7100000000000000000000000000000000000000000000000000000000600052603260045260246000fd5b90600052602060002090600502016000820160009054906101000a900473ffffffffffffffffffffffffffffffffffffffff168160000160006101000a81548173ffffffffffffffffffffffffffffffffffffffff021916908373ffffffffffffffffffffffffffffffffffffffff16021790555060018201816001019080546106d6906124a9565b6106e1929190611c5d565b506002820154816002015560038201548160030155600482015481600401559050506040518060400160405280601581526020017f4f5045524154494f4e205355434345535346554c4c00000000000000000000008152509150506107cc565b6040518060400160405280601681526020017f544f4b454e20414c524541445920464f522053414c45000000000000000000008152509150506107cc565b808061078a9061250c565b915050610395565b6040518060400160405280601081526020017f494e56414c494420544f4b454e204944000000000000000000000000000000008152509150505b92915050565b600080600090505b600360003373ffffffffffffffffffffffffffffffffffffffff1673ffffffffffffffffffffffffffffffffffffffff16815260200190815260200160002080549050811015610d5c5782600360003373ffffffffffffffffffffffffffffffffffffffff1673ffffffffffffffffffffffffffffffffffffffff168152602001908152602001600020828154811061089c577f4e487b7100000000000000000000000000000000000000000000000000000000600052603260045260246000fd5b9060005260206000209060050201600301541415610d495760006040518060a001604052808673ffffffffffffffffffffffffffffffffffffffff168152602001600360003373ffffffffffffffffffffffffffffffffffffffff1673ffffffffffffffffffffffffffffffffffffffff1681526020019081526020016000208481548110610954577f4e487b7100000000000000000000000000000000000000000000000000000000600052603260045260246000fd5b90600052602060002090600502016001018054610970906124a9565b80601f016020809104026020016040519081016040528092919081815260200182805461099c906124a9565b80156109e95780601f106109be576101008083540402835291602001916109e9565b820191906000526020600020905b8154815290600101906020018083116109cc57829003601f168201915b50505050508152602001600360003373ffffffffffffffffffffffffffffffffffffffff1673ffffffffffffffffffffffffffffffffffffffff1681526020019081526020016000208481548110610a6a577f4e487b7100000000000000000000000000000000000000000000000000000000600052603260045260246000fd5b9060005260206000209060050201600201548152602001858152602001600360003373ffffffffffffffffffffffffffffffffffffffff1673ffffffffffffffffffffffffffffffffffffffff1681526020019081526020016000208481548110610afe577f4e487b7100000000000000000000000000000000000000000000000000000000600052603260045260246000fd5b9060005260206000209060050201600401548152509050600360008673ffffffffffffffffffffffffffffffffffffffff1673ffffffffffffffffffffffffffffffffffffffff16815260200190815260200160002081908060018154018082558091505060019003906000526020600020906005020160009091909190915060008201518160000160006101000a81548173ffffffffffffffffffffffffffffffffffffffff021916908373ffffffffffffffffffffffffffffffffffffffff1602179055506020820151816001019080519060200190610be1929190611cea565b506040820151816002015560608201518160030155608082015181600401555050600360003373ffffffffffffffffffffffffffffffffffffffff1673ffffffffffffffffffffffffffffffffffffffff1681526020019081526020016000208281548110610c79577f4e487b7100000000000000000000000000000000000000000000000000000000600052603260045260246000fd5b9060005260206000209060050201600080820160006101000a81549073ffffffffffffffffffffffffffffffffffffffff0219169055600182016000610cbf9190611d70565b60028201600090556003820160009055600482016000905550508473ffffffffffffffffffffffffffffffffffffffff163373ffffffffffffffffffffffffffffffffffffffff167f3844b7075ed6e7d4b61342769cb2b1b325cba410a62932affaa90aee247dadf586604051610d369190612267565b60405180910390a3600192505050610d62565b8080610d549061250c565b9150506107da565b50600090505b92915050565b6000600360008373ffffffffffffffffffffffffffffffffffffffff1673ffffffffffffffffffffffffffffffffffffffff168152602001908152602001600020805490509050919050565b60606004805480602002602001604051908101604052809291908181526020016000905b82821015610f1057838290600052602060002090600502016040518060a00160405290816000820160009054906101000a900473ffffffffffffffffffffffffffffffffffffffff1673ffffffffffffffffffffffffffffffffffffffff1673ffffffffffffffffffffffffffffffffffffffff168152602001600182018054610e61906124a9565b80601f0160208091040260200160405190810160405280929190818152602001828054610e8d906124a9565b8015610eda5780601f10610eaf57610100808354040283529160200191610eda565b820191906000526020600020905b815481529060010190602001808311610ebd57829003601f168201915b50505050508152602001600282015481526020016003820154815260200160048201548152505081526020019060010190610dd8565b50505050905090565b60008054906101000a900473ffffffffffffffffffffffffffffffffffffffff1673ffffffffffffffffffffffffffffffffffffffff166108fc479081150290604051600060405180830381858888f19350505050158015610f7f573d6000803e3d6000fd5b50565b6060600080600080600360008873ffffffffffffffffffffffffffffffffffffffff1673ffffffffffffffffffffffffffffffffffffffff1681526020019081526020016000208681548110611001577f4e487b7100000000000000000000000000000000000000000000000000000000600052603260045260246000fd5b9060005260206000209060050201600101600360008973ffffffffffffffffffffffffffffffffffffffff1673ffffffffffffffffffffffffffffffffffffffff1681526020019081526020016000208781548110611089577f4e487b7100000000000000000000000000000000000000000000000000000000600052603260045260246000fd5b906000526020600020906005020160020154600360008a73ffffffffffffffffffffffffffffffffffffffff1673ffffffffffffffffffffffffffffffffffffffff1681526020019081526020016000208881548110611112577f4e487b7100000000000000000000000000000000000000000000000000000000600052603260045260246000fd5b906000526020600020906005020160000160009054906101000a900473ffffffffffffffffffffffffffffffffffffffff16600360008b73ffffffffffffffffffffffffffffffffffffffff1673ffffffffffffffffffffffffffffffffffffffff16815260200190815260200160002089815481106111bb577f4e487b7100000000000000000000000000000000000000000000000000000000600052603260045260246000fd5b906000526020600020906005020160030154600360008c73ffffffffffffffffffffffffffffffffffffffff1673ffffffffffffffffffffffffffffffffffffffff1681526020019081526020016000208a81548110611244577f4e487b7100000000000000000000000000000000000000000000000000000000600052603260045260246000fd5b906000526020600020906005020160040154848054611262906124a9565b80601f016020809104026020016040519081016040528092919081815260200182805461128e906124a9565b80156112db5780601f106112b0576101008083540402835291602001916112db565b820191906000526020600020905b8154815290600101906020018083116112be57829003601f168201915b50505050509450945094509450945094509295509295909350565b60005b600480549050811015611407578160048281548110611341577f4e487b7100000000000000000000000000000000000000000000000000000000600052603260045260246000fd5b90600052602060002090600502016003015414156113f45760048181548110611393577f4e487b7100000000000000000000000000000000000000000000000000000000600052603260045260246000fd5b9060005260206000209060050201600080820160006101000a81549073ffffffffffffffffffffffffffffffffffffffff02191690556001820160006113d99190611d70565b60028201600090556003820160009055600482016000905550505b80806113ff9061250c565b9150506112f9565b5050565b6000471161141857600080fd5b3073ffffffffffffffffffffffffffffffffffffffff166108fc6064600a3461144191906123c5565b61144b9190612394565b9081150290604051600060405180830381858888f19350505050158015611476573d6000803e3d6000fd5b508073ffffffffffffffffffffffffffffffffffffffff166108fc6064605a346114a091906123c5565b6114aa9190612394565b9081150290604051600060405180830381858888f193505050501580156114d5573d6000803e3d6000fd5b508073ffffffffffffffffffffffffffffffffffffffff163373ffffffffffffffffffffffffffffffffffffffff167fa5ff468a42a1c7f5a78dd6683a9722f1ef3c388d590959bbd7a6d2c837fcab07346040516115339190612267565b60405180910390a350565b6003602052816000526040600020818154811061155a57600080fd5b9060005260206000209060050201600091509150508060000160009054906101000a900473ffffffffffffffffffffffffffffffffffffffff16908060010180546115a4906124a9565b80601f01602080910402602001604051908101604052809291908181526020018280546115d0906124a9565b801561161d5780601f106115f25761010080835404028352916020019161161d565b820191906000526020600020905b81548152906001019060200180831161160057829003601f168201915b5050505050908060020154908060030154908060040154905085565b60008054906101000a900473ffffffffffffffffffffffffffffffffffffffff1681565b60015481565b6004818154811061167357600080fd5b90600052602060002090600502016000915090508060000160009054906101000a900473ffffffffffffffffffffffffffffffffffffffff16908060010180546116bc906124a9565b80601f01602080910402602001604051908101604052809291908181526020018280546116e8906124a9565b80156117355780601f1061170a57610100808354040283529160200191611735565b820191906000526020600020905b81548152906001019060200180831161171857829003601f168201915b5050505050908060020154908060030154908060040154905085565b606060005b600360008573ffffffffffffffffffffffffffffffffffffffff1673ffffffffffffffffffffffffffffffffffffffff168152602001908152602001600020805490508110156119e75782600360008673ffffffffffffffffffffffffffffffffffffffff1673ffffffffffffffffffffffffffffffffffffffff1681526020019081526020016000208281548110611818577f4e487b7100000000000000000000000000000000000000000000000000000000600052603260045260246000fd5b90600052602060002090600502016003015414156119d4576001600360008673ffffffffffffffffffffffffffffffffffffffff1673ffffffffffffffffffffffffffffffffffffffff16815260200190815260200160002082815481106118a9577f4e487b7100000000000000000000000000000000000000000000000000000000600052603260045260246000fd5b9060005260206000209060050201600401541415611996576000600360008673ffffffffffffffffffffffffffffffffffffffff1673ffffffffffffffffffffffffffffffffffffffff168152602001908152602001600020828154811061193a577f4e487b7100000000000000000000000000000000000000000000000000000000600052603260045260246000fd5b906000526020600020906005020160040181905550611958836112f6565b6040518060400160405280601581526020017f4f5045524154494f4e205355434345535346554c4c0000000000000000000000815250915050611a21565b6040518060400160405280601a81526020017f544f4b454e20414c5245414459204e4f5420464f522053414c45000000000000815250915050611a21565b80806119df9061250c565b915050611756565b6040518060400160405280601081526020017f494e56414c494420544f4b454e204944000000000000000000000000000000008152509150505b92915050565b60018054611a35919061233e565b60018190555060006040518060a001604052808573ffffffffffffffffffffffffffffffffffffffff168152602001848152602001838152602001600154815260200160018152509050600360008573ffffffffffffffffffffffffffffffffffffffff1673ffffffffffffffffffffffffffffffffffffffff16815260200190815260200160002081908060018154018082558091505060019003906000526020600020906005020160009091909190915060008201518160000160006101000a81548173ffffffffffffffffffffffffffffffffffffffff021916908373ffffffffffffffffffffffffffffffffffffffff1602179055506020820151816001019080519060200190611b4b929190611cea565b506040820151816002015560608201518160030155608082015181600401555050600481908060018154018082558091505060019003906000526020600020906005020160009091909190915060008201518160000160006101000a81548173ffffffffffffffffffffffffffffffffffffffff021916908373ffffffffffffffffffffffffffffffffffffffff1602179055506020820151816001019080519060200190611bfb929190611cea565b5060408201518160020155606082015181600301556080820151816004015550507f2728c9d3205d667bbc0eefdfeda366261b4d021949630c047f3e5834b30611ab33600154604051611c4f929190612185565b60405180910390a150505050565b828054611c69906124a9565b90600052602060002090601f016020900481019282611c8b5760008555611cd9565b82601f10611c9c5780548555611cd9565b82800160010185558215611cd957600052602060002091601f016020900482015b82811115611cd8578254825591600101919060010190611cbd565b5b509050611ce69190611db0565b5090565b828054611cf6906124a9565b90600052602060002090601f016020900481019282611d185760008555611d5f565b82601f10611d3157805160ff1916838001178555611d5f565b82800160010185558215611d5f579182015b82811115611d5e578251825591602001919060010190611d43565b5b509050611d6c9190611db0565b5090565b508054611d7c906124a9565b6000825580601f10611d8e5750611dad565b601f016020900490600052602060002090810190611dac9190611db0565b5b50565b5b80821115611dc9576000816000905550600101611db1565b5090565b6000611de0611ddb846122a7565b612282565b905082815260208101848484011115611df857600080fd5b611e03848285612467565b509392505050565b600081359050611e1a81612622565b92915050565b600082601f830112611e3157600080fd5b8135611e41848260208601611dcd565b91505092915050565b600081359050611e5981612639565b92915050565b600060208284031215611e7157600080fd5b6000611e7f84828501611e0b565b91505092915050565b600080600060608486031215611e9d57600080fd5b6000611eab86828701611e0b565b935050602084013567ffffffffffffffff811115611ec857600080fd5b611ed486828701611e20565b9250506040611ee586828701611e4a565b9150509250925092565b60008060408385031215611f0257600080fd5b6000611f1085828601611e0b565b9250506020611f2185828601611e4a565b9150509250929050565b600060208284031215611f3d57600080fd5b6000611f4b84828501611e4a565b91505092915050565b6000611f60838361207c565b905092915050565b611f718161241f565b82525050565b611f808161241f565b82525050565b6000611f91826122e8565b611f9b818561230b565b935083602082028501611fad856122d8565b8060005b85811015611fe95784840389528151611fca8582611f54565b9450611fd5836122fe565b925060208a01995050600181019050611fb1565b50829750879550505050505092915050565b61200481612431565b82525050565b6000612015826122f3565b61201f818561231c565b935061202f818560208601612476565b61203881612611565b840191505092915050565b600061204e826122f3565b612058818561232d565b9350612068818560208601612476565b61207181612611565b840191505092915050565b600060a0830160008301516120946000860182611f68565b50602083015184820360208601526120ac828261200a565b91505060408301516120c160408601826120f2565b5060608301516120d460608601826120f2565b5060808301516120e760808601826120f2565b508091505092915050565b6120fb8161245d565b82525050565b61210a8161245d565b82525050565b60006020820190506121256000830184611f77565b92915050565b600060a0820190506121406000830188611f77565b81810360208301526121528187612043565b90506121616040830186612101565b61216e6060830185612101565b61217b6080830184612101565b9695505050505050565b600060408201905061219a6000830185611f77565b6121a76020830184612101565b9392505050565b600060208201905081810360008301526121c88184611f86565b905092915050565b60006020820190506121e56000830184611ffb565b92915050565b600060208201905081810360008301526122058184612043565b905092915050565b600060a08201905081810360008301526122278188612043565b90506122366020830187612101565b6122436040830186611f77565b6122506060830185612101565b61225d6080830184612101565b9695505050505050565b600060208201905061227c6000830184612101565b92915050565b600061228c61229d565b905061229882826124db565b919050565b6000604051905090565b600067ffffffffffffffff8211156122c2576122c16125e2565b5b6122cb82612611565b9050602081019050919050565b6000819050602082019050919050565b600081519050919050565b600081519050919050565b6000602082019050919050565b600082825260208201905092915050565b600082825260208201905092915050565b600082825260208201905092915050565b60006123498261245d565b91506123548361245d565b9250827fffffffffffffffffffffffffffffffffffffffffffffffffffffffffffffffff0382111561238957612388612555565b5b828201905092915050565b600061239f8261245d565b91506123aa8361245d565b9250826123ba576123b9612584565b5b828204905092915050565b60006123d08261245d565b91506123db8361245d565b9250817fffffffffffffffffffffffffffffffffffffffffffffffffffffffffffffffff048311821515161561241457612413612555565b5b828202905092915050565b600061242a8261243d565b9050919050565b60008115159050919050565b600073ffffffffffffffffffffffffffffffffffffffff82169050919050565b6000819050919050565b82818337600083830152505050565b60005b83811015612494578082015181840152602081019050612479565b838111156124a3576000848401525b50505050565b600060028204905060018216806124c157607f821691505b602082108114156124d5576124d46125b3565b5b50919050565b6124e482612611565b810181811067ffffffffffffffff82111715612503576125026125e2565b5b80604052505050565b60006125178261245d565b91507fffffffffffffffffffffffffffffffffffffffffffffffffffffffffffffffff82141561254a57612549612555565b5b600182019050919050565b7f4e487b7100000000000000000000000000000000000000000000000000000000600052601160045260246000fd5b7f4e487b7100000000000000000000000000000000000000000000000000000000600052601260045260246000fd5b7f4e487b7100000000000000000000000000000000000000000000000000000000600052602260045260246000fd5b7f4e487b7100000000000000000000000000000000000000000000000000000000600052604160045260246000fd5b6000601f19601f8301169050919050565b61262b8161241f565b811461263657600080fd5b50565b6126428161245d565b811461264d57600080fd5b5056fea2646970667358221220a94da9c9de5fd54ba09831e51b8219c20793e9d044e9f6cc0d52f206a2fe6b5f64736f6c63430008010033",
  "immutableReferences": {},
  "source": "pragma solidity ^0.8.1;\r\n\r\ncontract BloCoin\r\n{\r\n    \r\n    receive () payable external {}\r\n    \r\n    struct Token \r\n    {\r\n        address ownerAddress;\r\n        string location;\r\n        uint cost;\r\n        uint tokenID;\r\n        uint wantSell;\r\n    }\r\n    \r\n    address public owner;   // Propritaire du contrat\r\n    bool _switch = false;\r\n\r\n    uint public totalTokensCounter = 0; // Nombre total de proprits\r\n    \r\n    string[] myArray;\r\n    \r\n    // Constructeur\r\n    constructor() public\r\n    {\r\n        owner = 0x4f332d20a4b738CBe44EdBfeB481E57865caAE60;\r\n        totalTokensCounter = 0;\r\n    }\r\n    \r\n\r\n    event Add(address _owner, uint _tokenID);\r\n    event UpdateStatus(string _msg,uint _cost);\r\n    event TransferToken(address indexed _from, address indexed _to, uint _tokenID);\r\n    event BuyToken(address indexed _from, address indexed _to, uint _cost);\r\n    \r\n    modifier isOwner\r\n    {\r\n        require(msg.sender == owner);\r\n        _;\r\n    }\r\n    \r\n    mapping (address => Token[]) public __ownedTokens;\r\n    Token[] public __forSaleTokens;\r\n    mapping (address => uint) balance;\r\n    \r\n\r\n    // Cration d'un token\r\n    function addToken(address tokenOwner, string memory _location, uint _cost) public\r\n    {\r\n        totalTokensCounter = totalTokensCounter + 1;\r\n        Token memory myToken = Token(\r\n            {\r\n                ownerAddress: tokenOwner,\r\n                location: _location,\r\n                cost: _cost,\r\n                tokenID: totalTokensCounter,\r\n                wantSell: 1\r\n            });\r\n        __ownedTokens[tokenOwner].push(myToken);\r\n        __forSaleTokens.push(myToken);\r\n        emit Add(msg.sender, totalTokensCounter);\r\n    }\r\n\r\n    // Achat d'un token\r\n    function transferEther(address rec) public payable {\r\n        require(address(this).balance > 0);\r\n        payable(this).transfer(msg.value * 10 / 100);\r\n        payable(rec).transfer(msg.value * 90 / 100);\r\n        \r\n        emit BuyToken(msg.sender, rec, msg.value);\r\n    }\r\n    \r\n    function deleteForSaleToken(uint _tokenID) public {\r\n        for(uint i=0; i < (__forSaleTokens.length);i++)    \r\n        {\r\n            if (__forSaleTokens[i].tokenID == _tokenID)\r\n            {\r\n                delete __forSaleTokens[i];\r\n            }\r\n        }\r\n    }\r\n    \r\n    function getAllTokens() public payable returns (Token[] memory) {\r\n        return __forSaleTokens;\r\n    }\r\n    \r\n    // Envoyer le token  l'acheteur\r\n    function transferToken(address _tokenBuyer, uint _tokenID) payable public returns (bool)\r\n    {\r\n        for(uint i=0; i < (__ownedTokens[msg.sender].length);i++)    \r\n        {\r\n            if (__ownedTokens[msg.sender][i].tokenID == _tokenID)\r\n            {\r\n                //copy token in new owner's collection\r\n                Token memory myToken = Token(\r\n                {\r\n                    ownerAddress:_tokenBuyer,\r\n                    location: __ownedTokens[msg.sender][i].location,\r\n                    cost: __ownedTokens[msg.sender][i].cost,\r\n                    tokenID: _tokenID,\r\n                    wantSell: __ownedTokens[msg.sender][i].wantSell\r\n                });\r\n                __ownedTokens[_tokenBuyer].push(myToken);   \r\n                \r\n                delete __ownedTokens[msg.sender][i];\r\n\r\n                emit TransferToken(msg.sender, _tokenBuyer, _tokenID);                \r\n                \r\n                return true;\r\n            }\r\n        }\r\n        \r\n        // En cas d'erreur\r\n        return false;\r\n    }\r\n    \r\n    // Rcuprer le token\r\n    function getToken(address _tokenHolder, uint _index) view public returns (string memory, uint, address,uint, uint)\r\n    {\r\n        return (__ownedTokens[_tokenHolder][_index].location, \r\n                __ownedTokens[_tokenHolder][_index].cost,\r\n                __ownedTokens[_tokenHolder][_index].ownerAddress,\r\n                __ownedTokens[_tokenHolder][_index].tokenID,\r\n                __ownedTokens[_tokenHolder][_index].wantSell\r\n                );\r\n                \r\n    }\r\n    \r\n    // Permet au propritaire du contrat de rcuprer le montant rcolt par le contrat\r\n    function withdraw() public {\r\n        payable(owner).transfer(address(this).balance);\r\n    }\r\n    \r\n    \r\n    // Enlever le token de la vente\r\n    function RemoveFromSale(address _tokenHolder, uint token_id) public returns (string memory){\r\n        \r\n        uint indexer;\r\n        \r\n        for(indexer=0; indexer < (__ownedTokens[_tokenHolder].length);indexer++){\r\n             if ( __ownedTokens[_tokenHolder][indexer].tokenID == token_id ){\r\n                 if ( __ownedTokens[_tokenHolder][indexer].wantSell == 1 ){\r\n                     __ownedTokens[_tokenHolder][indexer].wantSell=0;\r\n                     deleteForSaleToken(token_id);\r\n                     return \"OPERATION SUCCESSFULL\";\r\n                 }else{\r\n                     return \"TOKEN ALREADY NOT FOR SALE\";\r\n                 }\r\n             }\r\n         }\r\n        \r\n        return \"INVALID TOKEN ID\";\r\n    }\r\n    \r\n    // Ajouter le token  la vente\r\n    function AddForSale(address _tokenHolder, uint token_id) public returns (string memory){\r\n        \r\n        uint indexer;\r\n        \r\n        for(indexer=0; indexer < (__ownedTokens[_tokenHolder].length);indexer++){\r\n            if ( __ownedTokens[_tokenHolder][indexer].tokenID == token_id ){\r\n                if ( __ownedTokens[_tokenHolder][indexer].wantSell == 0 ){\r\n                    __ownedTokens[_tokenHolder][indexer].wantSell=1;\r\n                    __forSaleTokens[indexer] = __ownedTokens[_tokenHolder][indexer];\r\n                    return \"OPERATION SUCCESSFULL\";\r\n                }\r\n                else{\r\n                    return \"TOKEN ALREADY FOR SALE\";\r\n                }\r\n            }\r\n         }\r\n        \r\n        return \"INVALID TOKEN ID\";\r\n    }\r\n    \r\n    // Nombre total de tokens possds par un compte\r\n    function getNoOfTokens(address _tokenHolder) view public returns (uint)\r\n    {\r\n        return __ownedTokens[_tokenHolder].length;\r\n    }\r\n\r\n}\r\n\r\n",
  "sourcePath": "/Users/aurellandrykengninkongtchou/Documents/5BLOC-PROJET/contracts/BloCoin.sol",
  "compiler": {
    "name": "solc",
    "version": "0.8.1+commit.df193b15.Emscripten.clang"
  },
  "schemaVersion": "3.3.4",
  "updatedAt": "2021-03-02T22:41:12.753Z",
  "devdoc": {
    "kind": "dev",
    "methods": {},
    "version": 1
  },
  "userdoc": {
    "kind": "user",
    "methods": {},
    "version": 1
  }
}